:100000000C942A001895000018950000189500001F
:10001000189500000C942A1B1895000018950000F4
:10002000189500001895000018950000189500001C
:10003000189500001895000018950000189500000C
:1000400018950000189500001895000018950000FC
:10005000189500008FE58DBFC8E3E0E24E2E88E0E2
:100060008EBFD8E0F8E05F2EA89584B7082E877F72
:1000700084BF88E1992781BD91BDEEEFF7E0A0E64E
:10008000B0E088278D933197E9F70E94C81966245C
:10009000ECEAF0E080E40E94161A58E0C895802D42
:1000A0000E94101A31965A95C9F704C020041E1FE9
:1000B0001E042020A09A8E9A8F9A88E082BD85E047
:1000C00085BD79B7706479BF78948CE00E94161A68
:1000D00084E68093A400969A81E08093900000913A
:1000E0009000073018F011F00C9492000E94AD19A6
:1000F0008FEBA0E9B0E01C910E94BC19EEEEF8E392
:100100000E94A619E6EFF8E30E94A61982E390E0A8
:100110000E94DB1AA0E9B0E08C918F5F8C9310F401
:100120000C946F000E94AD1988EC90E00E94DB1ADD
:100130008FEB17E00E94BC19EEEEF8E30E94A619BF
:10014000E6EFF8E30E94A61984EF91E00E94DB1A23
:100150000E94AD1900917800033011F00C94B200A8
:100160000C946F180091A800013011F00C94C90094
:100170000091A900003011F00C94C7000E94AD1945
:10018000969888E00E94161A81E08093A900A89AA8
:10019000979A0091A800003081E009F080E08F93E9
:1001A000A5EAB0E08C9187FB81E00EF480E09F919E
:1001B0008923882311F40C94EE000091A9000130EA
:1001C00011F00C94EC000E94AD19969888E00E9402
:1001D000161A80E08093A900A898979881E08093F0
:1001E00092000C9460070E94B01AA8E7B0E00C934C
:1001F000ECEDFFE0A8E7B0E08C919927A9E7B0E02B
:100200000E94271B8FE711E00E94BC1900917C001F
:100210000A3010F00C941001ECEFF8E30E94A619DC
:10022000A8E0B8E0ECE7F0E00E94A51B0E949E1950
:10023000EEEFF8E30E94A61900917B000A3010F05F
:100240000C942601ECEFF8E30E94A619A8E0B8E0B0
:10025000EBE7F0E00E94A51B0E949E19EEEFF8E389
:100260000E94A61900917A000A3010F00C943C010B
:10027000ECEFF8E30E94A619A8E0B8E0EAE7F0E0A6
:100280000E94A51B0E949E19E0E0F9E30E94A619B6
:100290008FEB11E00E94BC19A8E0B8E0E0E8F0E0C4
:1002A0000E94A51B0E949E19E4E0F9E30E94A61992
:1002B00000917E000A3010F00C946201ECEFF8E33C
:1002C0000E94A619A8E0B8E0EEE7F0E00E94A51BA6
:1002D0000E949E19E4E0F9E30E94A61900917D00B6
:1002E0000A3010F00C947801ECEFF8E30E94A619A4
:1002F000A8E0B8E0EDE7F0E00E94A51B0E949E197F
:10030000E0E0F9E30E94A61900918100063081E047
:1003100009F080E08F9300917C00073181E009F0C3
:1003200080E09F9189238F9300917B000B3381E0C4
:1003300009F080E09F9189238F9300917A00083320
:1003400081E009F080E09F918923882311F40C94C7
:10035000DB018091A60081508093A6000091A60049
:100360000F3F11F00C94B70180E08093A600E3E00A
:10037000F0E00E94BF190E94AD1989E3A3E9B0E043
:100380008C9380E0A2E9B0E08C930E94251C10EAD7
:100390000E943D1CA2E9B0E01C910E943D1CA3E913
:1003A000B0E01C910E943D1CA6EAB0E01C910E94A6
:1003B0003D1C0E94341C8FE71DE00E94BC19A8E080
:1003C000B8E0E6EAF0E00E94A51B0E949E19E6E074
:1003D000F9E30E94A6198FE710E10E94BC19EAE038
:1003E000F9E30E94A61900918100013011F00C94EC
:1003F00003028FEB1BE00E94BC19E0E1F9E30E94CD
:10040000A6190C945502023011F00C9411028FEBD6
:100410001BE00E94BC19E8E1F9E30E94A6190C94C4
:100420005502033011F00C941F028FEB1BE00E9469
:10043000BC19E0E2F9E30E94A6190C9455020430BD
:1004400011F00C942D028FEB1BE00E94BC19E8E226
:10045000F9E30E94A6190C945502053011F00C9492
:100460003B028FEB1BE00E94BC19E2E3F9E30E9420
:10047000A6190C945502063011F00C9449028FEB2A
:100480001BE00E94BC19ECE3F9E30E94A6190C944E
:100490005502073011F00C9455028FEB1BE00E94BF
:1004A000BC19E4E4F9E30E94A6194091810000918F
:1004B000A400041781E009F480E08F9300918F007D
:1004C000043181E009F080E09F91892B882311F4A9
:1004D0000C94EE02789489E3A3E9B0E08C9380E079
:1004E000A2E9B0E08C930E94251C10EA0E943D1CFA
:1004F000A2E9B0E01C910E943D1CA3E9B0E01C9170
:100500000E943D1C0E94251C11EA0E943D1C0E9475
:100510005A1CA6EAB0E01C930E94341C8091810012
:100520008093A40080E080938F00009181000130CF
:1005300011F00C94A30289E090E0AEE9B0E08D9355
:100540009C930C94E902023011F00C94AF0281E10B
:1005500090E0AEE9B0E08D939C930C94E9020330F7
:1005600011F00C94BB0289E190E0AEE9B0E08D930C
:100570009C930C94E902043011F00C94C70281E2C0
:1005800090E0AEE9B0E08D939C930C94E9020530C5
:1005900011F00C94D30289E290E0AEE9B0E08D93C3
:1005A0009C930C94E902063011F00C94DF0281E375
:1005B00090E0AEE9B0E08D939C930C94E902073093
:1005C00011F00C94E90281E090E0AEE9B0E08D9387
:1005D0009C9384E1809391000C948A0883E912E053
:1005E0000E94BC19009196000A3010F00C94FC0295
:1005F000ECEFF8E30E94A619A8E0B8E0E6E9F0E025
:100600000E94A51B0E949E19EEEFF8E30E94A61916
:10061000009197000A3010F00C941203ECEFF8E30D
:100620000E94A619A8E0B8E0E7E9F0E00E94A51B47
:100630000E949E19EEE4F9E30E94A6190091980029
:100640000A3010F00C942803ECEFF8E30E94A6198E
:10065000A8E0B8E0E8E9F0E00E94A51B0E949E191E
:10066000EEEFF8E30E94A619009199000A3010F00D
:100670000C943E03ECEFF8E30E94A619A8E0B8E062
:10068000E9E9F0E00E94A51B0E949E19E0E0F9E371
:100690000E94A61983ED12E00E94BC1900919A00F5
:1006A0000A3010F00C945803ECEFF8E30E94A619FE
:1006B000A8E0B8E0EAE9F0E00E94A51B0E949E19BC
:1006C000EEEFF8E30E94A61900919B000A3010F0AB
:1006D0000C946E03ECEFF8E30E94A619A8E0B8E0D2
:1006E000EBE9F0E00E94A51B0E949E19EEE4F9E3FD
:1006F0000E94A61900919C000A3010F00C9484030B
:10070000ECEFF8E30E94A619A8E0B8E0ECE9F0E00D
:100710000E94A51B0E949E19EEEFF8E30E94A61905
:1007200000919D000A3010F00C949A03ECEFF8E36E
:100730000E94A619A8E0B8E0EDE9F0E00E94A51B30
:100740000E949E19E0E0F9E30E94A6190091A6001C
:10075000003011F40C942305A6E9B0E00D911127A7
:100760004CE350E00E94EA1AA0EAB0E00D931C931B
:10077000A7E9B0E00D911127A0EAB0E04D915C919E
:10078000040F151FA0EAB0E00D931C93A8E9B0E098
:100790000D9111274CE350E00E94EA1AA2EAB0E062
:1007A0000D931C93A9E9B0E00D911127A2EAB0E0E6
:1007B0004D915C91040F151FA2EAB0E00D931C93BC
:1007C00040917C0000919600041781E010F009F040
:1007D00080E08F9340917B0000919700041781E0A7
:1007E00010F009F080E09F9189238F93A0EAB0E098
:1007F0004D915C91A2EAB0E00D911C910417150790
:1008000080E010F009F081E09F9189238F9340915F
:100810007C0000919800041781E008F480E09F912B
:100820008923882311F40C941A047091A500706830
:100830007093A50040917C0000919800041781E01E
:1008400010F009F080E08F9340917B0000919900B7
:10085000041781E010F009F080E09F9189238F93C5
:10086000A0EAB0E04D915C91A2EAB0E00D911C913C
:100870000417150780E010F009F081E09F918923AB
:10088000882311F40C9449047091A5007F7770932C
:10089000A500A9E9B0E00D9111274CE350E00E94BA
:1008A000EA1AA0EAB0E00D931C93AAE9B0E00D911A
:1008B0001127A0EAB0E04D915C91040F151FA0EA4A
:1008C000B0E00D931C93ABE9B0E00D9111274CE320
:1008D00050E00E94EA1AA2EAB0E00D931C93ACE942
:1008E000B0E00D911127A2EAB0E04D915C91040FA8
:1008F000151FA2EAB0E00D931C9340917C0000917B
:100900009A00041781E010F009F080E08F93409185
:100910007B0000919B00041781E010F009F080E05B
:100920009F9189238F93A0EAB0E04D915C91A2EA58
:10093000B0E00D911C910417150780E010F009F04C
:1009400081E09F9189238F9340917C0000919C00CE
:10095000041781E008F480E09F918923882311F433
:100960000C94B7047091A50070687093A500409135
:100970007C0000919C00041781E010F009F080E0F9
:100980008F9340917B0000919D00041781E010F04F
:1009900009F080E09F9189238F93A0EAB0E04D9108
:1009A0005C91A2EAB0E00D911C910417150780E05C
:1009B00010F009F081E09F918923882311F40C94B1
:1009C000E6047091A5007F777093A500A5EAB0E0DA
:1009D0008C9187FB16F00C94FE040091AA00003065
:1009E00011F00C94FC040E94AD19969888E00E94C6
:1009F000161A81E08093AA00A89A979AA5EAB0E017
:100A00008C9187FB81E00EF480E08F930091A80029
:100A1000003081E009F080E09F918923882311F460
:100A20000C9423050091AA00013011F00C942105CB
:100A30000E94AD19969888E00E94161A80E0809373
:100A4000AA00A8989798009178000B3011F00C94A8
:100A50003C07969A8CE00E94161AF89480E08093E6
:100A600060000E94AD1984E180938F0080E0809344
:100A70008A0000E010E020E030E0A6E8B0E00D934E
:100A80001D932D933C930E94AD198FEB13E00E94B0
:100A9000BC19E6E5F9E30E94A61983E918E00E9473
:100AA000BC19A8E0B8E0E6E8F0E00E94991B0E94BB
:100AB0009E19E6E6F9E30E94A6190E94B01AA8E77B
:100AC000B0E00C9300917800003111F00C946A05AD
:100AD0000C944505009178000C3011F00C947405CD
:100AE0000E94AD190C94AA00ECEDFFE0A8E7B0E07D
:100AF0008C919927A9E7B0E00E94271B009179000B
:100B0000003081E008F480E08F9300917900093093
:100B100081E010F009F080E09F918923882311F48F
:100B20000C941F07A6E8B0E00D911D912D913C910A
:100B30004AE050E060E070E00E94F41AA6E8B0E0FD
:100B40000D931D932D933D93A6E8B0E00D911D915B
:100B50002D913C91A9E7B0E04C9155276627772766
:100B60000E947E1BA6E8B0E00D931D932D933D934C
:100B7000AAE8B0E08C918F5F8C9300918A000530D9
:100B800010F40C941D0780E080938A00E0E0F0E010
:100B9000A2E8B0E094E00E94091C40E050E060E070
:100BA00070E0A2E8B0E00D911D912D913C910E9462
:100BB000831B0CF402C00C94EF0507E61BE220E057
:100BC00030E0A2E8B0E00D931D932D933C93E0E05C
:100BD000F0E0A2E8B0E094E07BE70E94F81BA2E816
:100BE000B0E04D915D916D917C91A6E8B0E00D91E2
:100BF0001D912D913C910E94831B11F00C940007D4
:100C00000E94AD198FEB13E00E94BC19EEE6F9E3E8
:100C10000E94A61988E592E00E94DB1A0E94AD1995
:100C200000E010E020E030E0A6E8B0E00D931D9376
:100C30002D933C9380E08093790081E08093900035
:100C40000E94B01AA8E7B0E00C93009178000E3033
:100C500011F00C944606A0E9B0E02C9111E00E943E
:100C6000B219E0E8F9E30E94A619A0E9B0E08C917E
:100C70008F5F8C9300919000043018F011F00C9469
:100C800043060C94460681E0809390000091780022
:100C90000D3011F00C947206A0E9B0E02C9111E037
:100CA0000E94B219E0E8F9E30E94A619A0E9B0E0B9
:100CB0008C9181508C9300919000013081E008F07C
:100CC00080E08F9300919000043680E010F009F0EE
:100CD00081E09F91892B882311F40C94720684E0A3
:100CE00080939000009178000C3011F00C947F06F6
:100CF0000E94AD1984E180938F000C94AA000091AA
:100D000078000F3081E009F080E08F93009190002F
:100D1000013081E009F080E09F918923882311F45C
:100D20000C9494060C942E10009178000F3081E002
:100D300009F080E08F9300919000023081E009F08B
:100D400080E09F918923882311F40C94A9060C94C8
:100D5000B211009178000F3081E009F080E08F93AC
:100D600000919000033081E009F080E09F91892399
:100D7000882311F40C94BE060C940A0E009178009E
:100D80000F3081E009F080E08F93009190000430F3
:100D900081E009F080E09F918923882311F40C946D
:100DA000D3060C94DC168FE713E00E94BC19E2E82E
:100DB000F9E30E94A6198FEB13E00E94BC19EAE840
:100DC000F9E30E94A61983E913E00E94BC19ECE93B
:100DD000F9E30E94A61983ED13E00E94BC19E0EB31
:100DE000F9E30E94A619A0E9B0E02C9111E00E945D
:100DF000B21980E00E94101A0C9420060C941D0772
:100E000000E010E020E030E0A6E8B0E00D931D9394
:100E10002D933C930E94AD198FEB13E00E94BC19F7
:100E2000E8EBF9E30E94A61988E592E00E94DB1A3C
:100E30000E94AD1980E080938A000C943A070E312D
:100E400011F00C943A07A6E8B0E00D911D912D9198
:100E50003C914AE050E060E070E00E943A1AA6E857
:100E6000B0E04D935D936D937D9380918A008150A6
:100E700080938A000C94450500917800003110F0B1
:100E80000C944B070E94AD1980E080936000969A05
:100E90008CE00E94161A00916000083218F011F0E0
:100EA0000C9454070C945C078AE090E00E94DB1AD3
:100EB000969888E00E94161A0C94AA00F894FFCF26
:100EC0000E94251C10ED0E943D1C10E00E943D1C5C
:100ED0000E94251C11ED0E943D1C0E945C1CAAE78B
:100EE000B0E01C930E945C1CABE7B0E01C930E9436
:100EF0005C1CACE7B0E01C930E945C1CA1E8B0E075
:100F00001C930E945C1CADE7B0E01C930E945C1C2B
:100F1000AEE7B0E01C930E945A1CA0E8B0E01C931E
:100F20000E94341CACE7B0E09C910E94A01AACE790
:100F3000B0E08C93ABE7B0E09C910E94A01AABE7C5
:100F4000B0E08C93AAE7B0E09C910E94A01AAAE7B7
:100F5000B0E08C93ADE7B0E09C910E94A01AADE7A1
:100F6000B0E08C93AEE7B0E09C910E94A01AAEE78F
:100F7000B0E08C93A0E8B0E09C910E94A01AA0E899
:100F8000B0E08C93A1E8B0E09C910E94A01AA1E887
:100F9000B0E08C938AE090E00E94DB1A009192000E
:100FA000013011F00C94D8070C94F3000C94EE0768
:100FB000023011F00C94E0070C94C20B0C94EE0775
:100FC000033011F00C94E8070C9468120C94EE07AF
:100FD000043011F00C94EE070C9472140104073CD9
:100FE00002050800030609320A141E280E94AD19E2
:100FF0008FEB15E00E94BC19E8ECF9E30E94A619FA
:10100000E4EDF9E30E94A619AEE9B0E00D911C9160
:1010100047E050E0040F151FA0EAB0E00D931C93C9
:10102000AEE9B0E08D919C91A4E9B0E08D939C93E2
:10103000A0EAB0E04D915C91A4E9B0E00D911C9163
:101040000417150718F011F00C947408A0EAB0E02A
:101050000D911C91A4E9B0E04D915C91041B150B1E
:10106000A2EAB0E00D931C9308E010E0A2EAB0E021
:101070004D915C91041B150BA2EAB0E00D931C93FB
:10108000A4E9B0E08C91A3E9B0E08C93A4E9B0E0CE
:1010900011968C91A2E9B0E08C930E94251C10EA75
:1010A0000E943D1CA2E9B0E01C910E943D1CA3E9F6
:1010B000B0E01C910E943D1CA2EAB0E0AD90BC9053
:1010C000A5E9B0E0AA0DBB1D1C910E943D1C0E9429
:1010D000341C84E690E00E94DB1AA4E9B0E00E9490
:1010E000751910F40C9418080E94AD198FEB18E0D4
:1010F0000E94BC19E4EEF9E30E94A619EAEEF9E3B6
:101100000E94A61984E690E00E94DB1A0E94AD19A5
:101110000C942E1000919100043111F40C949E084F
:101120000E94AD198FEB15E00E94BC19E8ECF9E3C1
:101130000E94A619E4EDF9E30E94A619AEE9B0E019
:101140000D911C9147E050E0040F151FA0EAB0E09C
:101150000D931C93AEE9B0E08D919C91A4E9B0E0B1
:101160008D939C93A0EAB0E04D915C91A4E9B0E02E
:101170000D911C910417150718F011F00C94130928
:10118000A0EAB0E00D911C91A4E9B0E04D915C9112
:10119000041B150BA2EAB0E00D931C9308E010E0CD
:1011A000A2EAB0E04D915C91041B150BA2EAB0E0FD
:1011B0000D931C93A4E9B0E08C91A3E9B0E08C936B
:1011C000A4E9B0E011968C91A2E9B0E08C930E9462
:1011D000251C10EA0E943D1CA2E9B0E01C910E946F
:1011E0003D1CA3E9B0E01C910E943D1C0E94251CFF
:1011F00011EA0E943D1C0E945A1CA2EAB0E0AD9088
:10120000BC90A5E9B0E0AA0DBB1D1C930E94341C44
:1012100084E690E00E94DB1AA4E9B0E00E94751910
:1012200010F40C94B20800919100043111F00C9468
:101230001B090C94EE020E94AD190C94ED090E945A
:10124000AD198FEB15E00E94BC19E8ECF9E30E94A0
:10125000A619E4EDF9E30E94A61980E090E0A4E964
:10126000B0E08D939C93A4E9B0E00D911C910F3FE9
:1012700051E0150718F011F00C946A09A4E9B0E0E8
:101280008C91A3E9B0E08C93A4E9B0E011968C9125
:10129000A2E9B0E08C930E94251C10EA0E943D1C3C
:1012A000A2E9B0E01C910E943D1CA3E9B0E01C91B2
:1012B0000E943D1C10E00E943D1C0E94341C82E3F1
:1012C00090E00E94DB1AA4E9B0E00E94751910F4C6
:1012D0000C94330980E08093780080E0809379005B
:1012E00080E080937A0080E080937B0080E08093B0
:1012F0007C0080E080937D0080E080937E0080E031
:101300008093800081E08093810000E010E020E085
:1013100030E0A6E8B0E00D931D932D933C9380E060
:1013200080938A0000E010E020E030E0ABE8B0E01D
:101330000D931D932D933C9380E080938F0080E06C
:101340008093900080E08093910080E080939200F1
:1013500080E08093930080E090E0A4E9B0E08D937A
:101360009C9380E080939D0080E090E0AEE9B0E047
:101370008D939C9380E090E0A2EAB0E08D939C93E3
:1013800080E08093A4007091A5007F777093A50002
:1013900081E08093A60009E310E320E030E0A2E8BA
:1013A000B0E00D931D932D933C93E0E0F0E0A2E8B4
:1013B000B0E094E07BE70E94F81B09E310E320E033
:1013C00030E0A2E8B0E00D931D932D933C930E9472
:1013D000AD190C940A0E0C942D09809196008093FF
:1013E000A6008FE712E00E94BC19AEE9B0E00D91B3
:1013F0001C91013050E0150711F00C94090A8FE799
:1014000011E00E94BC19E4E4F9E30E94A6190C94CF
:10141000770A093050E0150711F00C94190A8FE78C
:1014200011E00E94BC19E0E1F9E30E94A6190C94B6
:10143000770A013150E0150711F00C94290A8FE763
:1014400011E00E94BC19E8E1F9E30E94A6190C948E
:10145000770A093150E0150711F00C94390A8FE72B
:1014600011E00E94BC19E0E2F9E30E94A6190C9475
:10147000770A013250E0150711F00C94490A8FE702
:1014800011E00E94BC19E8E2F9E30E94A6190C944D
:10149000770A093250E0150711F00C94590A8FE7CA
:1014A00011E00E94BC19E2E3F9E30E94A6190C9432
:1014B000770A013350E0150711F00C94690A8FE7A1
:1014C00011E00E94BC19ECE3F9E30E94A6190C9408
:1014D000770A093350E0150711F00C94770A8FE76B
:1014E00011E00E94BC19EAE0F9E30E94A619AEE9F6
:1014F000B0E00D911C91023350E0150710F00C94F0
:10150000910B00918A00013011F00C948D0A83E94F
:1015100013E00E94BC190C94D10A023011F00C9413
:10152000970A83E916E00E94BC190C94D10A033093
:1015300011F00C94A10A83E91BE00E94BC190C94E1
:10154000D10A043011F00C94AB0A83E91EE00E942A
:10155000BC190C94D10A053011F00C94B50A83ED36
:1015600013E00E94BC190C94D10A063011F00C94BF
:10157000BF0A83ED16E00E94BC190C94D10A073013
:1015800011F00C94C90A83ED1BE00E94BC190C9465
:10159000D10A083011F00C94D10A83ED1EE00E94AC
:1015A000BC19E0E0F9E30E94A61984E690E00E94ED
:1015B000DB1A83E913E00E94BC19009196000A30FF
:1015C00010F00C94E70AECEFF8E30E94A619A8E0EB
:1015D000B8E0E6E9F0E00E94A51B0E949E19EEEF3C
:1015E000F8E30E94A619009197000A3010F00C94BD
:1015F000FD0AECEFF8E30E94A619A8E0B8E0E7E9DD
:10160000F0E00E94A51B0E949E19E6E0F9E30E940B
:10161000A619009198000A3010F00C94130BECEF0F
:10162000F8E30E94A619A8E0B8E0E8E9F0E00E941B
:10163000A51B0E949E19EEEFF8E30E94A6190091E7
:1016400099000A3010F00C94290BECEFF8E30E949B
:10165000A619A8E0B8E0E9E9F0E00E94A51B0E9405
:101660009E19E6EFF9E30E94A61983ED13E00E94AC
:10167000BC1900919A000A3010F00C94430BECEF67
:10168000F8E30E94A619A8E0B8E0EAE9F0E00E94B9
:10169000A51B0E949E19EEEFF8E30E94A619009187
:1016A0009B000A3010F00C94590BECEFF8E30E9409
:1016B000A619A8E0B8E0EBE9F0E00E94A51B0E94A3
:1016C0009E19E6E0F9E30E94A61900919C000A30F9
:1016D00010F00C946F0BECEFF8E30E94A619A8E051
:1016E000B8E0ECE9F0E00E94A51B0E949E19EEEF25
:1016F000F8E30E94A61900919D000A3010F00C94A6
:10170000850BECEFF8E30E94A619A8E0B8E0EDE93C
:10171000F0E00E94A51B0E949E19E6EFF9E30E94EB
:10172000A619AEE9B0E00D911C91013350E0150708
:1017300080E010F009F081E08F93AEE9B0E00D9108
:101740001C910A3350E0150781E008F080E09F917A
:101750008923882311F40C94BD0B83E915E00E94C2
:10176000BC19A8E0B8E0E6EAF0E00E94A51B0E94E0
:101770009E19E6EFF9E30E94A61982E08093920099
:101780000C9460078FE71AE00E94BC1900917C005E
:101790000A3010F00C94D00BECEFF8E30E94A6197D
:1017A000A8E0B8E0ECE7F0E00E94A51B0E949E19BB
:1017B000EEEFF8E30E94A61900917B000A3010F0CA
:1017C0000C94E60BECEFF8E30E94A619A8E0B8E051
:1017D000EBE7F0E00E94A51B0E949E19EEEFF8E3F4
:1017E0000E94A61900917A000A3010F00C94FC0BAC
:1017F000ECEFF8E30E94A619A8E0B8E0EAE7F0E011
:101800000E94A51B0E949E19E6EFF9E30E94A6190B
:101810000E94B01AA8E7B0E00C9300917800003164
:1018200011F00C94150C0C94F109ECEDFFE0A8E715
:10183000B0E08C919927A9E7B0E00E94271BAEE9A0
:10184000B0E00D911C91013350E0150780E010F0DD
:1018500009F081E08F93AEE9B0E00D911C910A335D
:1018600050E0150781E008F080E09F9189238823EC
:1018700011F40C94DD0C00917900003081E008F443
:1018800080E08F9300917900093081E010F009F039
:1018900080E09F918923882311F40C94750CA6E8AD
:1018A000B0E00D911D912D913C914AE050E060E037
:1018B00070E00E94F41AA6E8B0E00D931D932D93FA
:1018C0003D93A6E8B0E00D911D912D913C91A9E7C3
:1018D000B0E04C915527662777270E947E1BA6E82B
:1018E000B0E00D931D932D933D934AEF50E060E0DF
:1018F00070E0A6E8B0E00D911D912D913C910E9401
:10190000831B1CF011F00C94870C0C94910C00E0DC
:1019100010E020E030E0A6E8B0E00D931D932D9399
:101920003C93009179000E3111F00C94A90CA6E8BB
:10193000B0E00D911D912D913C914AE050E060E0A6
:1019400070E00E943A1AA6E8B0E04D935D936D9363
:101950007D93809186008093A600009179000A30E3
:1019600011F00C94C40C00E010E020E030E0A6E898
:10197000B0E00D931D932D933C9381E08093A600DE
:101980000E94AD190C942E1000917900083211F0CC
:101990000C94DD0C84E180938F0000E010E020E0E7
:1019A00030E0A6E8B0E00D931D932D933C93809119
:1019B000A600809396000C94F607AEE9B0E00D9176
:1019C0001C91023350E0150710F00C94080E0091A2
:1019D0007900003081E008F480E08F930091790075
:1019E000093081E010F009F080E09F91892388237D
:1019F00011F40C94AC0DA6E8B0E00D911D912D9161
:101A00003C914AE050E060E070E00E94F41AA6E8E1
:101A1000B0E00D931D932D933D93A6E8B0E00D919A
:101A20001D912D913C91A9E7B0E04C915527662777
:101A300077270E947E1BA6E8B0E00D931D932D939F
:101A40003D9300918A00013081E009F080E08F939E
:101A500000918A00033081E009F080E09F91892B9A
:101A60008F9300918A00053081E009F080E09F911A
:101A7000892B8F9300918A00073081E009F080E084
:101A80009F91892B882311F40C94790D48E150E043
:101A900060E070E0A6E8B0E00D911D912D913C91C1
:101AA0000E94831B0CF402C00C94630D809186008D
:101AB000AAE8B0E0AD90BB24A5E9B0E0AA0DBB1D3B
:101AC0008C930C94770D80E0AAE8B0E0AD90BB2435
:101AD000A5E9B0E0AA0DBB1D8C9300E010E020E06A
:101AE00030E0A6E8B0E00D931D932D933C930C9449
:101AF000AA0D4CE350E060E070E0A6E8B0E00D9184
:101B00001D912D913C910E94831B0CF402C00C94FA
:101B1000960D80918600AAE8B0E0AD90BB24A5E9BF
:101B2000B0E0AA0DBB1D8C930C94AA0D80E0AAE82E
:101B3000B0E0AD90BB24A5E9B0E0AA0DBB1D8C932D
:101B400000E010E020E030E0A6E8B0E00D931D9347
:101B50002D933C930C94080E0E3111F00C94CD0D86
:101B6000AAE8B0E08C918F5F8C9300E010E020E059
:101B700030E0A6E8B0E00D931D932D933C930091C7
:101B80008A00083018F011F00C94C80D0C94CB0D9D
:101B900081E080938A000C94080E043111F00C94BB
:101BA000EB0D00E010E020E030E0A6E8B0E00D939F
:101BB0001D932D933C9380918A00815080938A00DD
:101BC00000918A00013010F00C94E90D88E08093B8
:101BD0008A000C94080E083211F00C94F60D8EE178
:101BE00080938F000C94F6070C94080E0A3011F0C5
:101BF0000C94080E00E010E020E030E0A6E8B0E031
:101C00000D931D932D933C930E94AD190C942E10AF
:101C10000C94F10981E08093900084E690E00E94AA
:101C2000DB1A0E94AD190E94B01AA8E7B0E00C932D
:101C3000009178000E3011F00C94390EA0E9B0E05C
:101C40002C9111E00E94B219E0E8F9E30E94A61974
:101C5000A0E9B0E08C918F5F8C93009190000330ED
:101C600018F011F00C94360E0C94390E81E080932C
:101C70009000EF93FF93EEEDF4E00E94A71AFF911E
:101C8000EF91009178000D3011F00C946D0EA0E9E9
:101C9000B0E02C9111E00E94B219E0E8F9E30E9453
:101CA000A61980919000815080939000009190003F
:101CB000013081E008F080E08F93009190000436BD
:101CC00080E010F009F081E09F91892B882311F4C6
:101CD0000C946D0E83E080939000A0E9B0E02C910D
:101CE00011E00E94B21980E00E94101A8FE713E001
:101CF0000E94BC19ECEFF9E30E94A6198FEB13E0E8
:101D00000E94BC19E8E0FAE30E94A61983E913E0F7
:101D10000E94BC19E4E1FAE30E94A6190091780040
:101D2000003181E009F080E08F93009178000E305F
:101D300081E009F080E09F91892B8F9300917800DA
:101D40000D3081E009F080E09F91892B882311F408
:101D50000C94AC0E0C94130E009178000F3081E0BF
:101D600009F080E08F9300919000033081E009F04A
:101D700080E09F918923882311F40C94C10E0C9468
:101D80001F09009178000C3011F00C94CC0E80E00B
:101D900080938A000C942006009178000F3081E037
:101DA00009F080E08F9300919000013081E009F00C
:101DB00080E09F918923882311F40C94130F0E94D3
:101DC000AD1989E00E94991AAFE8B0E08C930E94A7
:101DD000251C10ED0E943D1C10E00E943D1C10E0EF
:101DE0000E943D1C10E00E943D1CAFE8B0E01C9139
:101DF0000E943D1C14E00E943D1C0E94341C8FEB8D
:101E000018E00E94BC19E4EEF9E30E94A619EAEE7C
:101E1000F9E30E94A619E1E0F0E00E94BF190E94D8
:101E2000AD190C94AA00009178000F3081E009F000
:101E300080E08F9300919000023081E009F080E013
:101E40009F918923882311F40C942E1080E08093B5
:101E5000790080E08093780080E080938A0000E041
:101E600010E020E030E0ABE8B0E00D931D932D933F
:101E70003C930E94AD1900E010E020E030E0A6E8BD
:101E8000B0E00D931D932D933C938FE711E00E94DA
:101E9000BC19E2E2FAE30E94A6198FEB11E00E945E
:101EA000BC19A8E0B8E0EBE8F0E00E94991B0E94A2
:101EB0009E19E4EDF9E30E94A6190E94B01AA8E762
:101EC000B0E00C9300917800003111F00C946A0F8F
:101ED0000C94450FECEDFFE0A8E7B0E08C9199275A
:101EE000A9E7B0E00E94271B00917900003081E053
:101EF00008F480E08F9300917900093081E010F0C0
:101F000009F080E09F918923882311F40C94BB0F82
:101F100000918A00053010F00C94B90FABE8B0E0E6
:101F20000D911D912D913C914AE050E060E070E0F0
:101F30000E94F41AABE8B0E00D931D932D933D93EE
:101F4000ABE8B0E00D911D912D913C91A9E7B0E077
:101F50004C915527662777270E947E1BABE8B0E09F
:101F60000D931D932D933D93AAE8B0E08C918F5F64
:101F70008C930C942C10083211F00C9400104FE04C
:101F800057E260E070E0ABE8B0E00D911D912D915B
:101F90003C910E94831B1CF011F00C94D10F0C9407
:101FA000FE0FABE8B0E00D911D912D913C91A2E8A0
:101FB000B0E00D931D932D933C9380E080938A00B5
:101FC000E0E0F0E0A2E8B0E094E07BE70E94F81BDC
:101FD0000E94AD198FEB18E00E94BC19E4EEF9E302
:101FE0000E94A619EAEEF9E30E94A6198CE291E09C
:101FF0000E94DB1A0E94AD190C9420060C942C1040
:102000000A3011F00C9408100E94AD190C942C1099
:102010000E3111F00C942C10ABE8B0E00D911D9135
:102020002D913C914AE050E060E070E00E943A1A45
:10203000ABE8B0E04D935D936D937D9380918A0002
:10204000815080938A0000918A000F3F11F00C9418
:102050002C1080E080938A000C94450F0E94AD19EB
:1020600081E08093900081E0809391000091910045
:10207000013011F00C945E108FE713E00E94BC1940
:10208000EEE2FAE30E94A6198FEB13E00E94BC195E
:10209000E8E3FAE30E94A61983E913E00E94BC1961
:1020A000E8E1F9E30E94A61983ED13E00E94BC1950
:1020B000E0E2F9E30E94A6190C94921000919100BD
:1020C000023011F00C9486108FE713E00E94BC19C7
:1020D000E8E2F9E30E94A6198FEB13E00E94BC1915
:1020E000E2E3F9E30E94A61983E913E00E94BC1918
:1020F000ECE3F9E30E94A61983ED13E00E94BC19FA
:10210000E2E4FAE30E94A6190C9492100091910067
:10211000023018F011F00C948F100C94921081E0A2
:10212000809391000E94B01AA8E7B0E00C93ECED08
:10213000FFE0A8E7B0E08C919927A9E7B0E00E9402
:10214000271B009179000E3111F00C94B610A0E914
:10215000B0E02C9111E00E94B219E0E8F9E30E948E
:10216000A619A0E9B0E08C918F5F8C93009191004B
:10217000023081E009F080E08F93009190000430FC
:1021800080E010F009F081E09F918923882311F409
:102190000C94D21081E08093910081E080939000B4
:1021A0000E94AD1900919000043018F011F00C94C9
:1021B000DB100C94E510A1E9B0E08C918F5F8C935B
:1021C00081E0809390000E94AD1900917900043164
:1021D00011F00C94FA10A0E9B0E02C9111E00E94EB
:1021E000B219E0E8F9E30E94A619A0E9B0E08C91E9
:1021F00081508C9300919000013081E008F080E0E4
:102200008F9300919000083C80E010F009F081E08D
:102210009F91892B882311F40C94241184E08093DE
:1022200090008091910081508093910000919100E5
:10223000013010F00C94221182E08093910084E030
:10224000809390000E94AD1900917900083211F03E
:102250000C949D110E94AD1981E080938A00009139
:102260009100013011F00C94671100919000013041
:1022700011F00C94411181E090E0AEE9B0E08D9353
:102280009C9300919000023011F00C944D1189E064
:1022900090E0AEE9B0E08D939C9300919000033004
:1022A00011F00C94591181E190E0AEE9B0E08D930A
:1022B0009C9300919000043011F00C94651189E119
:1022C00090E0AEE9B0E08D939C930C949B110230AA
:1022D00011F00C949B1100919000013011F00C94BE
:1022E000771181E290E0AEE9B0E08D939C9300918C
:1022F0009000023011F00C94831189E290E0AEE975
:10230000B0E08D939C9300919000033011F00C94F9
:102310008F1181E390E0AEE9B0E08D939C93009142
:102320009000043011F00C949B1189E390E0AEE929
:10233000B0E08D939C930C948A08009179000A3048
:1023400011F00C94A7110E94AD190C942006A0E97D
:10235000B0E02C9111E00E94B21980E00E94101AA6
:102360000C9436100E94AD1981E0809390000E9479
:10237000B01AA8E7B0E00C93ECEDFFE0A8E7B0E0FE
:102380008C919927A9E7B0E00E94271B0091780063
:102390000E3011F00C94D111A0E9B0E08C918F5F58
:1023A0008C9300919000023018F011F00C94DA1127
:1023B0000C94DD1181E080939000009178000D3045
:1023C00011F00C94E811809190008150809390005E
:1023D00000919000013081E008F080E08F9300913F
:1023E0009000043680E010F009F081E09F91892B85
:1023F000882311F40C94FF1182E0809390000091E7
:1024000078000F3081E009F080E08F930091900018
:10241000013081E009F080E09F918923882311F445
:102420000C9416120E94AD190C9460120091780061
:102430000F3081E009F080E08F930091900002302E
:1024400081E009F080E09F918923882311F40C94A6
:102450002D120E94AD190C946A14009178000C3072
:1024600011F00C9435120C9420068FE711E00E94B5
:10247000BC19E0E8F9E30E94A6198FEB11E00E9475
:10248000BC19E0E8F9E30E94A619A0E9B0E02C919C
:1024900011E00E94B21980E00E94101A8FE713E049
:1024A0000E94BC19EAE4FAE30E94A6198FEB13E03C
:1024B0000E94BC19ECE5FAE30E94A6190C94B7112E
:1024C00083E0809392000C94600780E080938A0000
:1024D0008FE711E00E94BC19EAE6FAE30E94A61910
:1024E00000918A00003011F00C947A1283ED13E011
:1024F0000E94BC1900918A00013011F00C948412E2
:1025000083ED16E00E94BC19E0E0F9E30E94A619F1
:1025100084E690E00E94DB1A83ED13E00E94BC1970
:1025200000917C000A3010F00C949A12ECEFF8E362
:102530000E94A619A8E0B8E0ECE7F0E00E94A51B15
:102540000E949E19EEEFF8E30E94A61900917B000D
:102550000A3010F00C94B012ECEFF8E30E94A619C8
:10256000A8E0B8E0EBE7F0E00E94A51B0E949E19EE
:10257000EEEFF8E30E94A61900917A000A3010F0FD
:102580000C94C612ECEFF8E30E94A619A8E0B8E09C
:10259000EAE7F0E00E94A51B0E949E19E6E7FAE335
:1025A0000E94A6190E94B01AA8E7B0E00C9300910F
:1025B0007800003111F00C94DF120C946812ECEDED
:1025C000FFE0A8E7B0E08C919927A9E7B0E00E946E
:1025D000271B00917900003081E008F480E08F93A0
:1025E00000917900093081E010F009F080E09F91BE
:1025F0008923882311F40C94B713A6E8B0E00D9159
:102600001D912D913C914AE050E060E070E00E9405
:10261000F41AA6E8B0E00D931D932D933D93A6E820
:10262000B0E00D911D912D913C91A9E7B0E04C9146
:102630005527662777270E947E1BA6E8B0E00D93FA
:102640001D932D933D9300918A00003081E009F0A5
:1026500080E08F9348E150E060E070E0A6E8B0E0F1
:102660000D911D912D913C910E94831B80E00CF4F3
:1026700081E09F918923882311F40C944513809164
:10268000860080937C000C946C1300918A000030CB
:1026900081E009F080E08F9347E150E060E070E076
:1026A000A6E8B0E00D911D912D913C910E94831BF5
:1026B00080E014F009F081E09F918923882311F4D0
:1026C0000C946C1300E010E020E030E0A6E8B0E0ED
:1026D0000D931D932D933C9300918A00013081E06E
:1026E00009F080E08F934CE350E060E070E0A6E8F2
:1026F000B0E00D911D912D913C910E94831B80E0D3
:102700000CF481E09F918923882311F40C948E139B
:102710008091860080937B000C94B51300918A0011
:10272000013081E009F080E08F934BE350E060E0FE
:1027300070E0A6E8B0E00D911D912D913C910E94B2
:10274000831B80E014F009F081E09F9189238823A6
:1027500011F40C94B51300E010E020E030E0A6E89E
:10276000B0E00D931D932D933C930C9468140E319F
:1027700011F00C94D81300E010E020E030E0A6E85F
:10278000B0E00D931D932D933C93AAE8B0E08C919B
:102790008F5F8C9300918A00013018F011F00C9437
:1027A000D3130C94D61380E080938A000C946814A1
:1027B000083211F00C943514ACE7B0E08C910E9413
:1027C000991AACE7B0E08C93ABE7B0E08C910E9433
:1027D000991AABE7B0E08C930E94251C10ED0E9483
:1027E0003D1C11E00E943D1CABE7B0E01C910E9433
:1027F0003D1CACE7B0E01C910E943D1C0E94341CC3
:10280000ACE7B0E09C910E94A01AACE7B0E08C93DA
:10281000ABE7B0E09C910E94A01AABE7B0E08C93CC
:1028200080E080938A0000E010E020E030E0A6E83D
:10283000B0E00D931D932D933C930E94AD198FEB47
:1028400018E00E94BC19E4EEF9E30E94A619EAEE32
:10285000F9E30E94A61984E690E00E94DB1A0E9428
:10286000AD190C94B2110C946814043111F00C944D
:10287000531400E010E020E030E0A6E8B0E00D9353
:102880001D932D933C9380918A00815080938A0000
:1028900000918A000F3F11F00C94511480E0809356
:1028A0008A000C9468140A3011F00C94681480E0CB
:1028B00080938A0000E010E020E030E0A6E8B0E07D
:1028C0000D931D932D933C930E94AD190C94B2115E
:1028D0000C94681284E0809392000C94600780E06E
:1028E00080938A008FE711E00E94BC19E8E7FAE3C1
:1028F0000E94A61900918A00003011F00C948414F3
:1029000083E913E00E94BC1900918A00013011F0A4
:102910000C948E1483E916E00E94BC1900918A0081
:10292000023011F00C94981483E919E00E94BC194C
:10293000E0E0F9E30E94A61984E690E00E94DB1A29
:1029400083E913E00E94BC19009180000A3010F066
:102950000C94AE14ECEFF8E30E94A619A8E0B8E0DE
:10296000E0E8F0E00E94A51B0E949E19E4E0F9E374
:102970000E94A61900917E000A3010F00C94C41435
:10298000ECEFF8E30E94A619A8E0B8E0EEE7F0E06B
:102990000E94A51B0E949E19E4E0F9E30E94A6197B
:1029A00000917D000A3010F00C94DA14ECEFF8E39B
:1029B0000E94A619A8E0B8E0EDE7F0E00E94A51B90
:1029C0000E949E19E6E7FAE30E94A6190E94B01A37
:1029D000A8E7B0E00C9300917800003111F00C945E
:1029E000F3140C947214ECEDFFE0A8E7B0E08C91C6
:1029F0009927A9E7B0E00E94271B009179000030D9
:102A000081E008F480E08F9300917900093081E043
:102A100010F009F080E09F918923882311F40C9431
:102A20001416A6E8B0E00D911D912D913C914AE05D
:102A300050E060E070E00E94F41AA6E8B0E00D9368
:102A40001D932D933D93A6E8B0E00D911D912D911E
:102A50003C91A9E7B0E04C915527662777270E9463
:102A60007E1BA6E8B0E00D931D932D933D9300913E
:102A70008A00003081E009F080E08F9344E650E066
:102A800060E070E0A6E8B0E00D911D912D913C91C1
:102A90000E94831B80E00CF481E09F9189238823AE
:102AA00011F40C94591580918600809380000C9449
:102AB000801500918A00003081E009F080E08F935A
:102AC00043E650E060E070E0A6E8B0E00D911D91B3
:102AD0002D913C910E94831B80E014F009F081E06D
:102AE0009F918923882311F40C94801500E010E055
:102AF00020E030E0A6E8B0E00D931D932D933C93C9
:102B000000918A00013081E009F080E08F934DE070
:102B100050E060E070E0A6E8B0E00D911D912D91CD
:102B20003C910E94831B80E00CF481E09F918923FB
:102B3000882311F40C94A2158091860080937E0066
:102B40000C94C91500918A00013081E009F080E001
:102B50008F934CE050E060E070E0A6E8B0E00D91AB
:102B60001D912D913C910E94831B80E014F009F08F
:102B700081E09F918923882311F40C94C91500E00A
:102B800010E020E030E0A6E8B0E00D931D932D9317
:102B90003C9300918A00023081E009F080E08F933D
:102BA0004FE150E060E070E0A6E8B0E00D911D91CB
:102BB0002D913C910E94831B80E00CF481E09F9159
:102BC0008923882311F40C94EB158091860080935F
:102BD0007D000C94121600918A00023081E009F009
:102BE00080E08F934EE150E060E070E0A6E8B0E056
:102BF0000D911D912D913C910E94831B80E014F05A
:102C000009F081E09F918923882311F40C94121616
:102C100000E010E020E030E0A6E8B0E00D931D9366
:102C20002D933C930C94DA160E3111F00C9435165A
:102C300000E010E020E030E0A6E8B0E00D931D9346
:102C40002D933C93AAE8B0E08C918F5F8C93009118
:102C50008A00023018F011F00C9430160C943316E0
:102C600080E080938A000C94DA16083211F00C94FC
:102C7000A7160E94AD19ADE7B0E08C910E94991A99
:102C8000ADE7B0E08C93A0E8B0E08C910E94991A77
:102C9000A0E8B0E08C93AEE7B0E08C910E94991A66
:102CA000AEE7B0E08C930E94251C10ED0E943D1C05
:102CB00014E00E943D1CADE7B0E01C910E943D1C59
:102CC000AEE7B0E01C910E943D1CA0E8B0E01C9172
:102CD0000E943D1C0E94341CADE7B0E09C910E9414
:102CE000A01AADE7B0E08C93A0E8B0E09C910E9400
:102CF000A01AA0E8B0E08C93AEE7B0E09C910E94EF
:102D0000A01AAEE7B0E08C9380E080938A0000E0E8
:102D100010E020E030E0A6E8B0E00D931D932D9385
:102D20003C938FEB18E00E94BC19E4EEF9E30E949B
:102D3000A619EAEEF9E30E94A61988EC90E00E9439
:102D4000DB1A0E94AD190C94B2110C94DA160431FE
:102D500011F00C94C51600E010E020E030E0A6E889
:102D6000B0E00D931D932D933C9380918A00815088
:102D700080938A0000918A000F3F11F00C94C316D3
:102D800082E080938A000C94DA160A3011F00C94D9
:102D9000DA1680E080938A0000E010E020E030E066
:102DA000A6E8B0E00D931D932D933C930E94AD19BE
:102DB0000C94B2110C9472140E94AD1981E08093AE
:102DC000900081E080939100A0E9B0E02C9111E0A7
:102DD0000E94B21980E00E94101A00919100013007
:102DE00011F00C9415178FE713E00E94BC19EEE266
:102DF000FAE30E94A6198FEB13E00E94BC19E4E8E5
:102E0000FAE30E94A61983E913E00E94BC19EEE8D8
:102E1000FAE30E94A61983ED13E00E94BC19E8E9C9
:102E2000FAE30E94A6190C94411700919100023018
:102E300011F00C9435178FE713E00E94BC19E8E2FB
:102E4000F9E30E94A6198FEB13E00E94BC19E2EA95
:102E5000FAE30E94A61983E913E00E94BC19ECEA88
:102E6000FAE30E94A6190C944117009191000230D8
:102E700018F011F00C943E170C94411781E08093E8
:102E800091000E94B01AA8E7B0E00C93009178007E
:102E9000003111F00C944E170C94E4160091780058
:102EA0000E3011F00C946317A0E9B0E02C9111E002
:102EB0000E94B219E0E8F9E30E94A619A0E9B0E087
:102EC0008C918F5F8C9300919100023081E009F02A
:102ED00080E08F9300919000033080E010F009F0C3
:102EE00081E09F918923882311F40C947F1781E05E
:102EF0008093910081E0809390000E94AD19009131
:102F00009000043018F011F00C9488170C9492176C
:102F1000A1E9B0E08C918F5F8C9381E08093900069
:102F20000E94AD19009178000D3011F00C94A71794
:102F3000A0E9B0E02C9111E00E94B219E0E8F9E3B9
:102F40000E94A6198091900081508093900000917A
:102F50009000013081E008F080E08F9300919000B4
:102F6000083C80E010F009F081E09F91892B8823D4
:102F700011F40C94DF1784E080939000809191000D
:102F800081508093910000919100013081E008F020
:102F900080E08F9300919100083C80E010F009F0F0
:102FA00081E09F91892B882311F40C94DD1782E036
:102FB0008093910083E0809390000E94AD1900916E
:102FC0009100013011F00C940B1800919000013029
:102FD00011F00C94EE1787E080938F000091900021
:102FE000023011F00C94F71781E080938F0000916C
:102FF0009000033011F00C94001882E080938F0051
:1030000000919000043011F00C94091883E0809333
:103010008F000C942A18023011F00C942A18009199
:103020009000013011F00C94181884E080938F0008
:1030300000919000023011F00C94211885E08093EB
:103040008F0000919000033011F00C942A1886E054
:1030500080938F00009178000F3011F00C9460186D
:103060000E94AD198FEB18E00E94BC19E4EEF9E361
:103070000E94A619EAEEF9E30E94A61984E690E000
:103080000E94DB1AAFE8B0E08C910E94991AAFE879
:10309000B0E08C930E94251C10ED0E943D1C13E0B3
:1030A0000E943D1CAFE8B0E01C910E943D1C0E94B4
:1030B000341C84E0809390000E94AD190C9420068B
:1030C000009178000C3011F00C946D1881E0809321
:1030D00090000C9420060E94AD190C94E41680E038
:1030E0008093780080E08093790000E010E020E099
:1030F00030E0A6E8B0E00D931D932D933C930E9421
:10310000AD198FEB13E00E94BC19E6E5F9E30E94CC
:10311000A61983E918E00E94BC19A8E0B8E0E6E827
:10312000F0E00E94991B0E949E19E6E6F9E30E94D6
:10313000A6190E94B01AA8E7B0E00C93009178009D
:10314000003111F00C94A6180C94811800917800AD
:103150000C3011F00C94B3180E94AD1984E18093E7
:103160008F000C94AA00ECEDFFE0A8E7B0E08C9192
:103170009927A9E7B0E00E94271B00917900003051
:1031800081E008F480E08F9300917900093081E0BC
:1031900010F009F080E09F918923882311F40C94AA
:1031A0006C19A6E8B0E00D911D912D913C914AE07B
:1031B00050E060E070E00E94F41AA6E8B0E00D93E1
:1031C0001D932D933D93A6E8B0E00D911D912D9197
:1031D0003C91A9E7B0E04C915527662777270E94DC
:1031E0007E1BA6E8B0E00D931D932D933D93AAE8B6
:1031F000B0E08C918F5F8C9300918A00053010F4C1
:103200000C946C1980E080938A00E0E0F0E0A2E882
:10321000B0E094E00E94091CA2E8B0E04D915D91FD
:103220006D917C91A6E8B0E00D911D912D913C919E
:103230000E94831B11F00C943E190E94AD198FEB74
:1032400013E00E94BC19EEE6F9E30E94A619A8EA71
:10325000B0E08C918F5F8C930091A800013018F042
:1032600011F00C9435190C94381980E08093A80063
:1032700084EF91E00E94DB1A0C94581900E010E0F2
:1032800020E030E0A6E8B0E00D931D932D933C9331
:103290000E94AD198FEB13E00E94BC19E8EBF9E333
:1032A0000E94A61988E592E00E94DB1A0C9481180E
:1032B0000E94AD1900E010E020E030E0A6E8B0E0A8
:1032C0000D931D932D933C9380E08093790084E1CE
:1032D00080938F000C94AA000C94811884E1809351
:1032E0008F000E94AD190C94AA00ED91FC91EF5F44
:1032F000FF4FFC93EE93089505D00E94EA1A00FC5C
:103300000CD008950024E89457FF02C009D06894B7
:1033100000F80BD010F80124089502D009D00895C8
:10332000509540954F5F5F4F0895E89417FF0895BB
:10333000009510950F5F1F4F68940895A8E0B8E0BE
:103340008D91882311F06CD0FBCF08950E94171B3C
:10335000802D11F065D0FACF089581E067D015D0A7
:1033600080E864C08FE7213039F08FEB223021F004
:1033700083E9233009F083ED810F0C94161A88EE4F
:1033800093E019D13197D9F7089583E0992713C1B4
:103390008AEF90E00E94DB1A8D9A8C9A8B9A8A9A17
:1033A000899A889A909885E090E00E94DB1A91981B
:1033B00095989498939A929A919AEF93FF93E6EF47
:1033C000F0E00E94A71AFF91EF919198F1D0919AA5
:1033D000EF93FF93E6EFF0E00E94A71AFF91EF91C1
:1033E0009198E6D0919AEF93FF93E6EFF0E00E9478
:1033F000A71AFF91EF919198DBD09298919AEF9351
:10340000FF93E6EFF0E00E94A71AFF91EF919198E9
:10341000CFD088E20BD08EE009D086E007D00895A7
:10342000909A829505D004D0C3D008959098F9CF92
:10343000859510F4929A01C09298859510F4939A0C
:1034400001C09398859510F4949A01C0949885953D
:1034500010F4959A01C09598919AEF93FF93E6EF37
:10346000F0E00E94A71AFF91EF919198089500FC57
:1034700005D0089530D005D001F8F9CF37D03FD02E
:103480000895842F952FA62FB72FE894452B462B10
:10349000472B11F468940895402F512F622F732FFA
:1034A0000027112722273327F0E2440F551F661FFC
:1034B000771F001F111F221F331F081B190B2A0B18
:1034C0003B0B416028F4080F191F2A1F3B1F4E7F3A
:1034D000FA9559F708950024E89477FF02C006D0C2
:1034E000689400F809D010F80124089512D04F5FB5
:1034F0005F4F6F4F7F4F0895E89437FF0895009511
:103500001095209530950F5F1F4F2F4F3F4F6894B8
:10351000089540955095609570950895982F8295DF
:103520008F70805D8D939F70905D9D9388278C93A5
:1035300008954AE0082F0E94101C0295802B0895E0
:10354000892F8F70905110F0865FFCCF08953197CE
:10355000F1F70895689462F80895E89462F8089580
:1035600000E18FEF8BBB8FE08ABB80EF8BBB84E6E3
:103570008A95F1F7CC9B00E0CD9B04E0CE9B08E060
:10358000CF9B0CE080EF8ABB8FE08BBB84E68A95F3
:10359000F1F78827C89B80E0C99B81E0CA9B82E045
:1035A000CB9B83E0080F84E690E00E94DB1A08952D
:1035B00081E090E000C0EF93FF93EE27E82BE92B2A
:1035C00031F0E4ECF9E03197F1F70197D1F7FF9191
:1035D000EF9108950F92B801469F8001479F100D0B
:1035E000569F100D0F9008950F921F922F92C801B1
:1035F000D901489F80014A9F90014B9F202C499FF1
:10360000100D211D321D5A9F202C589F100D211D79
:10361000321D599F200D311D689F200D311D699F5E
:10362000300D789F300D2F901F900F900895C89502
:1036300031960020089591E005C092E003C094E027
:1036400001C098E0F4DF0D929A95E1F70895E80F34
:10365000F91FF1CFAF93BF930F939F938F938FB7C2
:103660008F93A0E6B0E08C9183958D938C3309F015
:103670003DC088278E9311968C9183958D938C33C2
:1036800009F034C088278E9311968C9183958D9381
:10369000883161F588278E9311968C9183958D934F
:1036A0009C910EE1943089F0963079F0993069F070
:1036B0009B3059F00CE1923039F411969C9111979E
:1036C000937019F4039501C00FE1801778F071F041
:1036D00081E08E9311968C9183958D938D3031F48A
:1036E00081E08E9311968C9183958C938F918FBFEF
:1036F0008F919F910F91BF91AF911895040F151F56
:10370000261F371F08950417150726073707089542
:10371000000F111F221F331F08950095109520954B
:1037200030950F5F1F4F2F4F3F4F0895019110812C
:103730000EC001911191219130810BC00191108136
:1037400017FF05C03FEF2FEF04C00081112722278C
:10375000332737FF03C0E1DF8DE28D93CF93DF93F3
:10376000CF92DF92EF92AA24BB24CC24DD24EE2456
:1037700040E2CAE0DD2755E093E38881890F87FDA9
:103780009F7083FD907F891B89935A95A9F7C0DFAD
:10379000AA1CBB1CCC1CDD1CEE1C4A9551F7E894FE
:1037A000EFE0FF2782910ED0EB30E0F71EF0689437
:1037B0008A2D0CD088278D93EF90DF90CF90DF91EA
:1037C000CF910895982F829501D0892F8F70805DB9
:1037D00026F0803309F4089568948D930895E19953
:1037E000FECFEEBBFFBB3196089591E001C092E0A1
:1037F0007B3751F47FB7F894F2DF8D918DBBE29A5D
:10380000E19A9A95C9F77FBF7727089591E001C0A3
:1038100092E0E5DFE09A8DB38D939A95D1F7089504
:10382000FF93881BF9E0001FFA9511F4FF910895AA
:10383000881F841B18F4840F8894F5CF0894F3CF65
:10384000AC98AD98A498A5980895A59AA49803D08B
:10385000A59801D0A49AEF93FF93E9E0F0E00E94CD
:10386000A71AFF91EF910895A59AA49AF4DFA5985D
:103870009D9BFECFF0DFA498EECF0894111F01C0EE
:10388000110F69F0A59A18F40000A49802C0A49A38
:1038900000C0E1DFA5989D9BFECFDDDFF1CFA59AAB
:1038A000A498D9DFA5989D9BFECFE8949C99689435
:1038B00062F8D1CF089401C08894331F11E0A59A13
:1038C000A498C9DFA5989D9BFECFC5DF88949C99DD
:1038D0000894111FA0F7A59A379510F4A49801C079
:1038E000A49AB9DFA5989D9BFECFB5DF08954849FE
:1038F0002D544543480020202020200030003A006D
:10390000202000002F00202020005745454B0000BC
:1039100053554E44415900004D4F4E44415900000B
:1039200054554553444159005745444E455344412D
:103930005900544855525344415900004652494495
:103940004159000053415455524441590000202030
:10395000544F20200000454E5445522050415353AF
:10396000574F524400002020202020200000434FC9
:1039700052524543542050415353574F5244000034
:10398000200050524F4752414D004348414E474559
:1039900020444154452654494D4500004348414E7A
:1039A0004745205041535326424154545259000038
:1039B00053455420444159004552524F52205041E2
:1039C0005353574F52440000504C454153452057E4
:1039D0004149540020202020202020202020202089
:1039E0002020000073617665000020202020202028
:1039F00020202020000020202020000053455420BB
:103A000042415454525900004348414E47452050CA
:103A1000415353004D415354455220524553455450
:103A20000000454E5445522050415353000053412D
:103A3000545552444159200053554E444159202079
:103A400000005745454B202000004348414E474564
:103A50002054494D45202020202000004348414E5D
:103A6000474520444154452000004348414E4745C6
:103A70002054494D450000004348414E47452044ED
:103A80004154450053554E444159202020004D4F8C
:103A90004E4441592020200054554553444159205B
:103AA000200054485552534441592000465249443D
:063AB00041592020200016
:00000001FF
